{
  "_format": "hh-sol-artifact-1",
  "contractName": "Porfolio",
  "sourceName": "contracts/Porfolio.sol",
  "abi": [
    {
      "inputs": [],
      "stateMutability": "nonpayable",
      "type": "constructor"
    },
    {
      "anonymous": false,
      "inputs": [
        {
          "indexed": false,
          "internalType": "address",
          "name": "from",
          "type": "address"
        },
        {
          "indexed": false,
          "internalType": "string",
          "name": "mesaje",
          "type": "string"
        }
      ],
      "name": "newMesaje",
      "type": "event"
    },
    {
      "inputs": [
        {
          "internalType": "string",
          "name": "_mesaje",
          "type": "string"
        }
      ],
      "name": "sendMesaje",
      "outputs": [],
      "stateMutability": "nonpayable",
      "type": "function"
    },
    {
      "inputs": [
        {
          "internalType": "uint256",
          "name": "",
          "type": "uint256"
        }
      ],
      "name": "viewMesaje",
      "outputs": [
        {
          "internalType": "uint256",
          "name": "id",
          "type": "uint256"
        },
        {
          "internalType": "address",
          "name": "from",
          "type": "address"
        },
        {
          "internalType": "string",
          "name": "mesaje",
          "type": "string"
        }
      ],
      "stateMutability": "view",
      "type": "function"
    }
  ],
  "bytecode": "0x6080604052600060015534801561001557600080fd5b50336000806101000a81548173ffffffffffffffffffffffffffffffffffffffff021916908373ffffffffffffffffffffffffffffffffffffffff16021790555061092f806100656000396000f3fe608060405234801561001057600080fd5b50600436106100365760003560e01c80638a44fcd41461003b578063da4bd6e71461006d575b600080fd5b610055600480360381019061005091906102ab565b610089565b604051610064939291906103b8565b60405180910390f35b6100876004803603810190610082919061052b565b61015b565b005b60026020528060005260406000206000915090508060000154908060010160009054906101000a900473ffffffffffffffffffffffffffffffffffffffff16908060020180546100d8906105a3565b80601f0160208091040260200160405190810160405280929190818152602001828054610104906105a3565b80156101515780601f1061012657610100808354040283529160200191610151565b820191906000526020600020905b81548152906001019060200180831161013457829003601f168201915b5050505050905083565b604051806060016040528060015481526020013373ffffffffffffffffffffffffffffffffffffffff168152602001828152506002600060015481526020019081526020016000206000820151816000015560208201518160010160006101000a81548173ffffffffffffffffffffffffffffffffffffffff021916908373ffffffffffffffffffffffffffffffffffffffff16021790555060408201518160020190816102099190610780565b509050507fbe6d6e7fc7cfcc6f0b8c2a0d31ac7911996bbdfec25da5cd09186561cc9b418b338260405161023e929190610852565b60405180910390a160016000815480929190610259906108b1565b919050555050565b6000604051905090565b600080fd5b600080fd5b6000819050919050565b61028881610275565b811461029357600080fd5b50565b6000813590506102a58161027f565b92915050565b6000602082840312156102c1576102c061026b565b5b60006102cf84828501610296565b91505092915050565b6102e181610275565b82525050565b600073ffffffffffffffffffffffffffffffffffffffff82169050919050565b6000610312826102e7565b9050919050565b61032281610307565b82525050565b600081519050919050565b600082825260208201905092915050565b60005b83811015610362578082015181840152602081019050610347565b60008484015250505050565b6000601f19601f8301169050919050565b600061038a82610328565b6103948185610333565b93506103a4818560208601610344565b6103ad8161036e565b840191505092915050565b60006060820190506103cd60008301866102d8565b6103da6020830185610319565b81810360408301526103ec818461037f565b9050949350505050565b600080fd5b600080fd5b7f4e487b7100000000000000000000000000000000000000000000000000000000600052604160045260246000fd5b6104388261036e565b810181811067ffffffffffffffff8211171561045757610456610400565b5b80604052505050565b600061046a610261565b9050610476828261042f565b919050565b600067ffffffffffffffff82111561049657610495610400565b5b61049f8261036e565b9050602081019050919050565b82818337600083830152505050565b60006104ce6104c98461047b565b610460565b9050828152602081018484840111156104ea576104e96103fb565b5b6104f58482856104ac565b509392505050565b600082601f830112610512576105116103f6565b5b81356105228482602086016104bb565b91505092915050565b6000602082840312156105415761054061026b565b5b600082013567ffffffffffffffff81111561055f5761055e610270565b5b61056b848285016104fd565b91505092915050565b7f4e487b7100000000000000000000000000000000000000000000000000000000600052602260045260246000fd5b600060028204905060018216806105bb57607f821691505b6020821081036105ce576105cd610574565b5b50919050565b60008190508160005260206000209050919050565b60006020601f8301049050919050565b600082821b905092915050565b6000600883026106367fffffffffffffffffffffffffffffffffffffffffffffffffffffffffffffffff826105f9565b61064086836105f9565b95508019841693508086168417925050509392505050565b6000819050919050565b600061067d61067861067384610275565b610658565b610275565b9050919050565b6000819050919050565b61069783610662565b6106ab6106a382610684565b848454610606565b825550505050565b600090565b6106c06106b3565b6106cb81848461068e565b505050565b5b818110156106ef576106e46000826106b8565b6001810190506106d1565b5050565b601f82111561073457610705816105d4565b61070e846105e9565b8101602085101561071d578190505b610731610729856105e9565b8301826106d0565b50505b505050565b600082821c905092915050565b600061075760001984600802610739565b1980831691505092915050565b60006107708383610746565b9150826002028217905092915050565b61078982610328565b67ffffffffffffffff8111156107a2576107a1610400565b5b6107ac82546105a3565b6107b78282856106f3565b600060209050601f8311600181146107ea57600084156107d8578287015190505b6107e28582610764565b86555061084a565b601f1984166107f8866105d4565b60005b82811015610820578489015182556001820191506020850194506020810190506107fb565b8683101561083d5784890151610839601f891682610746565b8355505b6001600288020188555050505b505050505050565b60006040820190506108676000830185610319565b8181036020830152610879818461037f565b90509392505050565b7f4e487b7100000000000000000000000000000000000000000000000000000000600052601160045260246000fd5b60006108bc82610275565b91507fffffffffffffffffffffffffffffffffffffffffffffffffffffffffffffffff82036108ee576108ed610882565b5b60018201905091905056fea26469706673582212204da887518dcdf495d93ce0c8b4691a642d36d7a056008badc263b3fd24a79a6364736f6c63430008110033",
  "linkReferences": {},
  "deployedLinkReferences": {}
}